{
  "address": "0x932939EafB3a7eBe9cd9588118c30A103E8A72fF",
  "abi": [
    {
      "inputs": [],
      "stateMutability": "nonpayable",
      "type": "constructor"
    },
    {
      "inputs": [],
      "name": "BuyMeACoffe__CallFailed",
      "type": "error"
    },
    {
      "inputs": [],
      "name": "BuyMeACoffe__NotEnoughETH",
      "type": "error"
    },
    {
      "anonymous": false,
      "inputs": [
        {
          "indexed": true,
          "internalType": "address",
          "name": "from",
          "type": "address"
        },
        {
          "indexed": false,
          "internalType": "uint256",
          "name": "timestamp",
          "type": "uint256"
        },
        {
          "indexed": false,
          "internalType": "string",
          "name": "name",
          "type": "string"
        },
        {
          "indexed": false,
          "internalType": "string",
          "name": "message",
          "type": "string"
        }
      ],
      "name": "NewCoffe",
      "type": "event"
    },
    {
      "anonymous": false,
      "inputs": [
        {
          "indexed": true,
          "internalType": "address",
          "name": "previousOwner",
          "type": "address"
        },
        {
          "indexed": true,
          "internalType": "address",
          "name": "newOwner",
          "type": "address"
        }
      ],
      "name": "OwnershipTransferred",
      "type": "event"
    },
    {
      "inputs": [
        {
          "internalType": "string",
          "name": "name",
          "type": "string"
        },
        {
          "internalType": "string",
          "name": "message",
          "type": "string"
        }
      ],
      "name": "buyCoffe",
      "outputs": [],
      "stateMutability": "payable",
      "type": "function"
    },
    {
      "inputs": [],
      "name": "getCoffeId",
      "outputs": [
        {
          "internalType": "uint256",
          "name": "",
          "type": "uint256"
        }
      ],
      "stateMutability": "view",
      "type": "function"
    },
    {
      "inputs": [],
      "name": "getCoffes",
      "outputs": [
        {
          "components": [
            {
              "internalType": "address",
              "name": "from",
              "type": "address"
            },
            {
              "internalType": "uint256",
              "name": "timestamp",
              "type": "uint256"
            },
            {
              "internalType": "string",
              "name": "name",
              "type": "string"
            },
            {
              "internalType": "string",
              "name": "message",
              "type": "string"
            }
          ],
          "internalType": "struct BuyMeACoffe.Coffe[]",
          "name": "",
          "type": "tuple[]"
        }
      ],
      "stateMutability": "view",
      "type": "function"
    },
    {
      "inputs": [],
      "name": "owner",
      "outputs": [
        {
          "internalType": "address",
          "name": "",
          "type": "address"
        }
      ],
      "stateMutability": "view",
      "type": "function"
    },
    {
      "inputs": [],
      "name": "renounceOwnership",
      "outputs": [],
      "stateMutability": "nonpayable",
      "type": "function"
    },
    {
      "inputs": [
        {
          "internalType": "address",
          "name": "newOwner",
          "type": "address"
        }
      ],
      "name": "transferOwnership",
      "outputs": [],
      "stateMutability": "nonpayable",
      "type": "function"
    },
    {
      "inputs": [],
      "name": "withdraw",
      "outputs": [],
      "stateMutability": "nonpayable",
      "type": "function"
    },
    {
      "stateMutability": "payable",
      "type": "receive"
    }
  ],
  "transactionHash": "0x14251f9f6b508c0fd986a53f2da76f512f4efb9e3cb83ae34ead6d8284167d60",
  "args": [],
  "numDeployments": 2,
  "solcInputHash": "452ead0ee2016fe54d6d4a06c762907f",
  "bytecode": "0x608060405234801561001057600080fd5b5061001a33610024565b6000600155610074565b600080546001600160a01b038381166001600160a01b0319831681178455604051919092169283917f8be0079c531659141344cd1fd0a4f28419497f9722a3daafe3b4186f6b6457e09190a35050565b61094d806100836000396000f3fe6080604052600436106100745760003560e01c8063715018a61161004e578063715018a61461010b5780638da5cb5b14610120578063bb4ff5a214610148578063f2fde38b1461016a57600080fd5b80630863b162146100c05780630b96ef83146100e35780633ccfd60b146100f657600080fd5b366100bb576100b960405180604001604052806004815260200163253437b760e11b81525060405180604001604052806002815260200161486960f01b81525061018a565b005b600080fd5b3480156100cc57600080fd5b506001546040519081526020015b60405180910390f35b6100b96100f13660046106f6565b61018a565b34801561010257600080fd5b506100b961025f565b34801561011757600080fd5b506100b96102de565b34801561012c57600080fd5b506000546040516001600160a01b0390911681526020016100da565b34801561015457600080fd5b5061015d6102f2565b6040516100da91906107a7565b34801561017657600080fd5b506100b961018536600461084e565b610495565b346101a85760405163ea317e9960e01b815260040160405180910390fd5b600180549060006101b88361087e565b909155505060018054600090815260036020908152604090912080546001600160a01b03191633178155429281019290925583516101fe916002840191908601906105ba565b50815161021490600383019060208501906105ba565b50336001600160a01b03167f0b7f87ba586eecf73cd9a259d82989ed3432948ae690ef22ca831e8805769e35428585604051610252939291906108a7565b60405180910390a2505050565b610267610510565b600080546040516001600160a01b039091169047908381818185875af1925050503d80600081146102b4576040519150601f19603f3d011682016040523d82523d6000602084013e6102b9565b606091505b50509050806102db5760405163203183b160e21b815260040160405180910390fd5b50565b6102e6610510565b6102f0600061056a565b565b60606002805480602002602001604051908101604052809291908181526020016000905b8282101561048c576000848152602090819020604080516080810182526004860290920180546001600160a01b0316835260018101549383019390935260028301805492939291840191610369906108dc565b80601f0160208091040260200160405190810160405280929190818152602001828054610395906108dc565b80156103e25780601f106103b7576101008083540402835291602001916103e2565b820191906000526020600020905b8154815290600101906020018083116103c557829003601f168201915b505050505081526020016003820180546103fb906108dc565b80601f0160208091040260200160405190810160405280929190818152602001828054610427906108dc565b80156104745780601f1061044957610100808354040283529160200191610474565b820191906000526020600020905b81548152906001019060200180831161045757829003601f168201915b50505050508152505081526020019060010190610316565b50505050905090565b61049d610510565b6001600160a01b0381166105075760405162461bcd60e51b815260206004820152602660248201527f4f776e61626c653a206e6577206f776e657220697320746865207a65726f206160448201526564647265737360d01b60648201526084015b60405180910390fd5b6102db8161056a565b6000546001600160a01b031633146102f05760405162461bcd60e51b815260206004820181905260248201527f4f776e61626c653a2063616c6c6572206973206e6f7420746865206f776e657260448201526064016104fe565b600080546001600160a01b038381166001600160a01b0319831681178455604051919092169283917f8be0079c531659141344cd1fd0a4f28419497f9722a3daafe3b4186f6b6457e09190a35050565b8280546105c6906108dc565b90600052602060002090601f0160209004810192826105e8576000855561062e565b82601f1061060157805160ff191683800117855561062e565b8280016001018555821561062e579182015b8281111561062e578251825591602001919060010190610613565b5061063a92915061063e565b5090565b5b8082111561063a576000815560010161063f565b634e487b7160e01b600052604160045260246000fd5b600082601f83011261067a57600080fd5b813567ffffffffffffffff8082111561069557610695610653565b604051601f8301601f19908116603f011681019082821181831017156106bd576106bd610653565b816040528381528660208588010111156106d657600080fd5b836020870160208301376000602085830101528094505050505092915050565b6000806040838503121561070957600080fd5b823567ffffffffffffffff8082111561072157600080fd5b61072d86838701610669565b9350602085013591508082111561074357600080fd5b5061075085828601610669565b9150509250929050565b6000815180845260005b8181101561078057602081850181015186830182015201610764565b81811115610792576000602083870101525b50601f01601f19169290920160200192915050565b60006020808301818452808551808352604092508286019150828160051b87010184880160005b8381101561084057888303603f19018552815180516001600160a01b0316845287810151888501528681015160808886018190529061080f8287018261075a565b9150506060808301519250858203818701525061082c818361075a565b9689019694505050908601906001016107ce565b509098975050505050505050565b60006020828403121561086057600080fd5b81356001600160a01b038116811461087757600080fd5b9392505050565b60006000198214156108a057634e487b7160e01b600052601160045260246000fd5b5060010190565b8381526060602082015260006108c0606083018561075a565b82810360408401526108d2818561075a565b9695505050505050565b600181811c908216806108f057607f821691505b6020821081141561091157634e487b7160e01b600052602260045260246000fd5b5091905056fea26469706673582212209e3508752295f3729e7d12c5ff266b48b9bdd88f47efd27cd25a6abf5282345364736f6c63430008090033",
  "devdoc": {
    "kind": "dev",
    "methods": {
      "owner()": {
        "details": "Returns the address of the current owner."
      },
      "renounceOwnership()": {
        "details": "Leaves the contract without owner. It will not be possible to call `onlyOwner` functions anymore. Can only be called by the current owner. NOTE: Renouncing ownership will leave the contract without an owner, thereby removing any functionality that is only available to the owner."
      },
      "transferOwnership(address)": {
        "details": "Transfers ownership of the contract to a new account (`newOwner`). Can only be called by the current owner."
      }
    },
    "version": 1
  },
  "userdoc": {
    "kind": "user",
    "methods": {},
    "version": 1
  },
  "storageLayout": {
    "storage": [
      {
        "astId": 7,
        "contract": "contracts/BuyMeACoffe.sol:BuyMeACoffe",
        "label": "_owner",
        "offset": 0,
        "slot": "0",
        "type": "t_address"
      },
      {
        "astId": 145,
        "contract": "contracts/BuyMeACoffe.sol:BuyMeACoffe",
        "label": "s_coffeId",
        "offset": 0,
        "slot": "1",
        "type": "t_uint256"
      },
      {
        "astId": 158,
        "contract": "contracts/BuyMeACoffe.sol:BuyMeACoffe",
        "label": "s_coffes",
        "offset": 0,
        "slot": "2",
        "type": "t_array(t_struct(Coffe)154_storage)dyn_storage"
      },
      {
        "astId": 173,
        "contract": "contracts/BuyMeACoffe.sol:BuyMeACoffe",
        "label": "s_coffeById",
        "offset": 0,
        "slot": "3",
        "type": "t_mapping(t_uint256,t_struct(Coffe)154_storage)"
      }
    ],
    "types": {
      "t_address": {
        "encoding": "inplace",
        "label": "address",
        "numberOfBytes": "20"
      },
      "t_array(t_struct(Coffe)154_storage)dyn_storage": {
        "base": "t_struct(Coffe)154_storage",
        "encoding": "dynamic_array",
        "label": "struct BuyMeACoffe.Coffe[]",
        "numberOfBytes": "32"
      },
      "t_mapping(t_uint256,t_struct(Coffe)154_storage)": {
        "encoding": "mapping",
        "key": "t_uint256",
        "label": "mapping(uint256 => struct BuyMeACoffe.Coffe)",
        "numberOfBytes": "32",
        "value": "t_struct(Coffe)154_storage"
      },
      "t_string_storage": {
        "encoding": "bytes",
        "label": "string",
        "numberOfBytes": "32"
      },
      "t_struct(Coffe)154_storage": {
        "encoding": "inplace",
        "label": "struct BuyMeACoffe.Coffe",
        "members": [
          {
            "astId": 147,
            "contract": "contracts/BuyMeACoffe.sol:BuyMeACoffe",
            "label": "from",
            "offset": 0,
            "slot": "0",
            "type": "t_address"
          },
          {
            "astId": 149,
            "contract": "contracts/BuyMeACoffe.sol:BuyMeACoffe",
            "label": "timestamp",
            "offset": 0,
            "slot": "1",
            "type": "t_uint256"
          },
          {
            "astId": 151,
            "contract": "contracts/BuyMeACoffe.sol:BuyMeACoffe",
            "label": "name",
            "offset": 0,
            "slot": "2",
            "type": "t_string_storage"
          },
          {
            "astId": 153,
            "contract": "contracts/BuyMeACoffe.sol:BuyMeACoffe",
            "label": "message",
            "offset": 0,
            "slot": "3",
            "type": "t_string_storage"
          }
        ],
        "numberOfBytes": "128"
      },
      "t_uint256": {
        "encoding": "inplace",
        "label": "uint256",
        "numberOfBytes": "32"
      }
    }
  }
}